:100000000C945D000C94610D0C94880D0C94E80C1C
:100010000C94E80C0C94E80C0C94B4030C940C11A4
:100020000C9485000C9485000C9485000C9485003C
:100030000C9485000C9485000C9485000C9485002C
:100040000C94AF0D0C9485000C94BA0F0C94EC0F2B
:100050000C9485000C9485000C9485000C9485000C
:100060000C9485000C948500000000090003020038
:10007000000405080000000000000000000000016E
:10008000020408102040800102040810200102042C
:100090000810204080400404040404040404020204
:1000A000020202020303030303030202030000002F
:1000B00000250028002B00021C1011241FBECFEFCA
:1000C000D8E0DEBFCDBF12E0A0E0B1E0E6E1FBE2A8
:1000D00002C005900D92AE39B107D9F724E0AEE920
:1000E000B2E001C01D92A831B207E1F710E0CDE502
:1000F000D0E004C02197FE010E949911CC35D107B0
:10010000C9F70E9468110C9489150C940000EF92B5
:10011000FF920F938EE9E82E82E0F82E01E030E0A6
:1001200020E040E951E06BE071E087EB90E00E9455
:10013000E5060F91FF90EF9008950895DC012C9152
:1001400062E171E02E3759F41296EC91E80FF92F25
:10015000F11D319780818F3741F061E271E080E7D6
:1001600093E00E94981080E0089581E00895CF9375
:10017000DF93CDB7DEB7C151D1400FB6F894DEBFE3
:100180000FBECDBF26E040E052EC61E070E080E7BA
:1001900093E00E945E0F80E793E00E94F70E6EE20C
:1001A00071E080E793E00E949810D12C10E000E00D
:1001B0008DEEE82E81E0F82E9AE5492E91E0592E39
:1001C0002AE6622E21E0722E3AE8A32E31E0B32E09
:1001D0004E012EEE821A2EEF920A80E793E00E94E3
:1001E0008B0E892BD1F380E793E00E94A50E282E79
:1001F000011106C18EE7312E2812F0C06CE971E0C2
:1002000080E793E00E949810FE01319611928E16BD
:100210009F06E1F710E0D12C33243394310EE1E056
:10022000F0E0EC0FFD1FE10FF11D208201E0D31083
:10023000D5C0CE0101960E949E00082F882309F4A4
:10024000CDC08A81807E803209F480C048F4882342
:10025000C1F163E372E080E793E00E9498108FC0E1
:10026000803409F4C1C08036A1F76FEF71E080E7F8
:1002700093E00E94981088851F921F921F928F937F
:1002800088E192E09F938F9300E713E01F930F9311
:100290000E94AF108C851F921F921F928F9388E24D
:1002A00092E09F938F931F930F930E94AF108889C2
:1002B0001F928F93FF92EF921F930F930E94AF10A4
:1002C0003FC062E471E080E793E00E949810888567
:1002D0001F928F935F924F9200E713E01F930F934B
:1002E0000E94AF1089851F928F937F926F921F9308
:1002F0000F930E94AF108A851F921F921F928F93B7
:100300008AE791E09F938F931F930F930E94AF1002
:100310008E851F921F921F928F93BF92AF921F9351
:100320000F930E94AF108A891F921F921F928F9382
:100330008FE991E09F938F931F930F930E94AF10CB
:100340000FB6F894DEBF0FBECDBF19C06CEA71E0E6
:1003500080E793E00E94981088851F928F9385EC28
:1003600091E09F938F9380E793E09F938F930E94F8
:10037000AF100F900F900F900F900F900F908A81F9
:100380008F711F928F9381E592E09F938F9300E787
:1003900013E01F930F930E94AF108B811F928F93D6
:1003A00081E692E09F938F931F930F930E94AF106B
:1003B0008F818F938E818F938D818F938C818F937B
:1003C0008EE692E09F938F931F930F930E94AF103E
:1003D0000FB6F894DEBF0FBECDBF00E090E080E026
:1003E0000E944E09132DF9CE68ED71E080E793E08D
:1003F0000E94981088851F928F93FF92EF92B3CF3F
:10040000123009F009CFD82E07CFCF93DF93EC013C
:100410000E941E08CE010E949F11EC010E94DB0881
:10042000209711F40E94CE0CCE01DF91CF91089558
:10043000CF93DF93009751F0EC010E941E08CE018C
:100440000E943B12DF91CF910C94DB08DF91CF919A
:100450000895FC010396928381832FEF3FEF34834D
:100460002383968385839087878310820895FC0178
:10047000118610860895CF93DF939C01FB01DC0168
:100480001196CD91DC91D383C2838C819D8195831C
:1004900084838C819D81DC0113967C936E931297EB
:1004A0007D836C8331872087F90180818F5F808312
:1004B000DF91CF9108950F931F93CF93DF938C011A
:1004C000FB0180819181D80113968F3F9807F1F449
:1004D000E801AF81B88512968D919C911397938313
:1004E0008283EC01FD83EC83B583A4831396FC9394
:1004F000EE93129711870087F80180818F5F8083C8
:10050000DF91CF911F910F910895D90112962D91EE
:100510003C911397E9014881598184179507A8F701
:10052000DACFCF93DF93FC01A085B18582819381DF
:1005300024813581EC013D832C83C481D5819B834B
:100540008A8311968D919C9112978E179F0721F4A3
:100550001296DC93CE931197118610868C91815060
:100560008C938C91DF91CF910895FC01608331973A
:10057000708331971082319720E820833197108261
:10058000779740833197508383970895A89588E1A2
:1005900090EC0FB6F894A895809360000FBE9093EE
:1005A0006000A0910503B0910603CD91CDBFDD9110
:1005B000DEBFFF91EF91DF91CF91BF91AF919F91FE
:1005C0008F917F916F915F914F913F912F911F91EB
:1005D0000F91FF90EF90DF90CF90BF90AF909F90E2
:1005E0008F907F906F905F904F903F902F901F90D3
:1005F0000F900FBE0F90089581E008950F920FB6EF
:10060000F8940F921F9211242F923F924F925F9273
:100610006F927F928F929F92AF92BF92CF92DF9212
:10062000EF92FF920F931F932F933F934F935F93FC
:100630006F937F938F939F93AF93BF93CF93DF93EA
:10064000EF93FF93A0910503B09106030DB60D92B1
:100650000EB60D920E946309A0910503B0910603A6
:10066000CD91CDBFDD91DEBFFF91EF91DF91CF91B5
:10067000BF91AF919F918F917F916F915F914F91BA
:100680003F912F911F910F91FF90EF90DF90CF90AE
:10069000BF90AF909F908F907F906F905F904F90A2
:1006A0003F902F901F900F900FBE0F9008950F92C4
:1006B0000FB6F8940F921F9211242F923F924F92EF
:1006C0005F926F927F928F929F92AF92BF92CF92E2
:1006D000DF92EF92FF920F931F932F933F934F93CD
:1006E0005F936F937F938F939F93AF93BF93CF93BA
:1006F000DF93EF93FF93A0910503B09106030DB62E
:100700000D920EB60D9213BE0E942E0881110E940A
:100710006309A0910503B0910603CD91CDBFDD9192
:10072000DEBFFF91EF91DF91CF91BF91AF919F918C
:100730008F917F916F915F914F913F912F911F9179
:100740000F91FF90EF90DF90CF90BF90AF909F9070
:100750008F907F906F905F904F903F902F901F9061
:100760000F900FBE0F9008950E94570318950FB673
:10077000F8940F92FC01928D0F900FBE81E09111C1
:1007800080E008950F931F93CF93DF93EC01042F24
:100790001A8D4C8D411111C088819981892B29F5C1
:1007A0008C819D810E94780A1D821C821F5F1A8F96
:1007B000DF91CF911F910F91089550E0011117C063
:1007C0008A819B810E94C4128C8D2A813B81820F79
:1007D000932F911D9B838A832C813D8182179307E0
:1007E00020F0888199819B838A8380E0DFCF8E818E
:1007F0009F810E94C4128C8D90E091958195910902
:100800002E813F81280F391F3F832E8348815981D4
:100810002417350730F42C813D81820F931F9F836D
:100820008E83023011F7112301F31150DECFFC014A
:10083000CB01448D4423A1F050E026813781240F61
:10084000351F37832683648175812617370720F08B
:100850002081318137832683668177810C94C4128D
:100860000895EF92FF921F93CF93DF93EC010FB6A1
:10087000F8940F921E8D7C0181E1E80EF11C111697
:10088000C4F08FEF8E8F0F900FBE0FB6F8940F92BB
:100890001D8D7E0188E0E80EF11C1116ACF08FEF83
:1008A0008D8F0F900FBEDF91CF911F91FF90EF9032
:1008B00008958989882329F3C7010E94EB098111D2
:1008C0000E94660A1150DBCF8885882341F3C70157
:1008D0000E94EB0981110E94660A1150DECFCF936E
:1008E000DF93EC010FB6F8940F92888199812B8DDC
:1008F0004C8DFC01249FE00DF11D1124FD83EC8340
:100900001A8E9B838A832150330B429FF001439FB1
:10091000F00D11248E0F9F1F9F838E838FEF8D8F7D
:100920008E8F611110C08885882339F0CE0108961A
:100930000E94EB0981110E94FE020F900FBE81E020
:10094000DF91CF910895CE0108960E942902CE0131
:1009500041960E942902F1CF0F931F93CF93DF930B
:10096000082F162F869FC00111244F960E94050262
:10097000EC01009751F011110EC0998388830B8F01
:100980001C8F61E0CE010E946F04CE01DF91CF91F8
:100990001F910F9108954F9699838883F0CFAF925E
:1009A000BF92CF92DF92FF920F931F93CF93DF936B
:1009B00000D000D01F92CDB7DEB78C016B015D83F4
:1009C0004C83F22E80E0580198E0A90EB11C0FB6BE
:1009D000F8940F92F801228D938D291718F0F2E008
:1009E000FF1222C04F2DB601C8010E94C203F801B8
:1009F0009189992321F0C80141960E94EB09811148
:100A00000E94FE020F900FBE81E00F900F900F909A
:100A10000F900F90DF91CF911F910F91FF90DF907A
:100A2000CF90BF90AF9008952C813D81232B21F46E
:100A30000F900FBE80E0E9CF811104C0CE01019676
:100A40000E942A0A0F900FBE0E941E080FB6F8944B
:100A50000F92F801858D8F3F09F4158EF801868D70
:100A60008F3F09F4168E0F900FBEBE016C5F7F4F53
:100A7000CE0101960E94350A811120C00FB6F8946C
:100A80000F92F801928D838D0F900FBE981310C0B6
:100A90006C817D81C5010E94C209C8010E94310498
:100AA0000E94DB08811102C00E94FE0281E08FCF0C
:100AB000C8010E9431040E94DB08F8CFC8010E94DF
:100AC00031040E94DB08B6CFEF92FF921F93CF93C1
:100AD000DF93EC019A8D8B8D981718F080E022300F
:100AE000D1F47A011E8D8A8D422FCE010E94C2035D
:100AF0001F3FB9F48989811102C081E00CC0CE0189
:100B000041960E94EB098823C1F3E114F104A9F393
:100B100081E0F7018083DF91CF911F91FF90EF90EB
:100B200008951F5F1E8FE9CFAF92BF92CF92DF92E1
:100B3000FF920F931F93CF93DF9300D000D01F92AB
:100B4000CDB7DEB78C016B015D834C8380E058012B
:100B500091E1A90EB11C0FB6F8940F92F801F28C36
:100B6000FF2019F1B601C8010E941704FA94F80198
:100B7000F28E8085882339F0C80108960E94EB091F
:100B800081110E94FE020F900FBE81E00F900F9026
:100B90000F900F900F90DF91CF911F910F91FF90C9
:100BA000DF90CF90BF90AF9008952C813D81232B93
:100BB00021F40F900FBE80E0E9CF811104C0CE0177
:100BC00001960E942A0A0F900FBE0E941E080FB6BF
:100BD000F8940F92F801858D8F3F09F4158EF80176
:100BE000868D8F3F09F4168E0F900FBEBE016C5F8D
:100BF0007F4FCE0101960E94350A81111BC0C801AA
:100C00000E94B703882381F06C817D81C5010E9419
:100C1000C209C8010E9431040E94DB08811102C090
:100C20000E94FE0281E097CFC8010E9431040E9419
:100C3000DB08F8CFC8010E9431040E94DB08C8011C
:100C40000E94B703882371F3B6CFCF93DF93EC01F3
:100C50000FB6F8940F928D8D8F3F09F41D8E8E8DF7
:100C60008F3F09F41E8E0F900FBE8A8D811104C034
:100C7000CE0141960E94D309CE01DF91CF910C9411
:100C80003104E091CD02F091CE028081811107C044
:100C90008FEF9FEF9093A4028093A3020895E091B9
:100CA000CD02F091CE020580F681E02D0680F7811D
:100CB000E02D82819381EECFFF920F931F93CF930C
:100CC000DF93EC01F62E0091AC021091AD02809101
:100CD00005039091060302960E949102CF3FDC0724
:100CE00089F4FF2079F060910503709106036E5F2F
:100CF0007F4F8FEA92E0DF91CF911F910F91FF908C
:100D00000C943B02C00FD11FE0910503F091060344
:100D1000D383C2836091050370910603C017D10786
:100D200068F48091CB029091CC026E5F7F4FDF918F
:100D3000CF911F910F91FF900C945B028091CD0297
:100D40009091CE026E5F7F4F0E945B028091A30262
:100D50009091A402C817D90720F4D093A402C0939D
:100D6000A302DF91CF911F910F91FF900895809181
:100D7000B802811109C08091E102823010F00E9416
:100D8000FE020E94C50CF3CF0FB6F8940F92E091CB
:100D9000BE02F091BF02C681D781CE0102960E94A9
:100DA00091028091AE0281508093AE028091B80290
:100DB00081508093B8020F900FBE8F89988D0E944A
:100DC0001802CE010E941802D2CF5F926F927F92DA
:100DD0008F929F92AF92BF92CF92DF92EF92FF924B
:100DE0000F931F93CF93DF933C016B015A0149018D
:100DF000502ECA010E9405028C01892BF1F088E275
:100E000090E00E940502EC01892BA1F0188F0F8B56
:100E1000A50165EA70E0C8010E94CD1221E0A21A86
:100E2000B1088F89988DA80EB91EC114D104B1F4F0
:100E3000198E29C0C8010E9418028FEFDF91CF914F
:100E40001F910F91FF90EF90DF90CF90BF90AF90E8
:100E50009F908F907F906F905F900895F601AE0104
:100E6000475E5F4FC60108962191DA012D93AD01CF
:100E70009F0121503109D9012C91222319F08E179D
:100E80009F0791F718A2052D043008F003E00E8BA0
:100E900009A31AA26E01B2E0CB0ED11CC6010E94BA
:100EA0003702CE010C960E943702D987C88784E0AA
:100EB00090E0801B91099D878C87DB8BCA8B1BA2DE
:100EC0001CA21DA21EA21FA2A401B301C5010E9463
:100ED000B50299838883E114F10419F0F701D183F5
:100EE000C0830FB6F8940F928091AE028F5F80930B
:100EF000AE028091050390910603892B09F05FC033
:100F0000D0930603C09305038091AE02813081F532
:100F100081EE92E00E9429028AEE92E00E9429026C
:100F200083EF92E00E9429028CEF92E00E94290256
:100F300088ED92E00E9429028FEC92E00E94290243
:100F400082EC92E00E94290289EB92E00E94290241
:100F50008FEA92E00E94290288ED92E09093CE02FF
:100F60008093CD028FEC92E09093CC028093CB02E1
:100F70008091A5028F5F8093A5028E899091AB022C
:100F8000981710F48093AB02F9E08F9FC0011124F1
:100F9000B6018F519D4F0E943B020F900FBE809172
:100FA000AA02882351F0E0910503F0910603968987
:100FB0008E89981710F40E94FE0281E03FCF809145
:100FC000AA028111D5CFE0910503F091060396891D
:100FD0008E89891768F2D0930603C0930503C8CFA2
:100FE000EF92FF920F9381EAE82E82E0F82E00E064
:100FF00030E020E040EC50E06EE772E087EB96E0F6
:101000000E94E5068130B1F40E94000B813091F41A
:10101000F8942FEF3FEF3093A4022093A302809324
:10102000AA021092AD021092AC020F91FF90EF90C5
:101030000C94C6020F91FF90EF9008958091A0024A
:101040008F5F8093A00208950FB6F8940F9280915D
:10105000AC029091AD020F900FBE0895CF92DF9237
:10106000EF92FF920F931F93CF93DF938091A00293
:10107000811196C00091AC021091AD020F5F1F4F1D
:101080001093AD020093AC0201151105B9F48091E3
:10109000CD029091CE022091CB023091CC023093C0
:1010A000CE022093CD029093CC028093CB0280910C
:1010B000A6028F5F8093A6020E9441068091A30240
:1010C0009091A402C0E008171907E8F4E091050325
:1010D000F0910603E689B9E0EB9FF0011124EF518E
:1010E000FD4F8081823008F0C1E08091A70281111C
:1010F000C1E08C2FDF91CF911F910F91FF90EF9066
:10110000DF90CF900895D9E0E091CD02F091CE022A
:101110008081811107C08FEF9FEF9093A40280938D
:10112000A302D4CFE091CD02F091CE020580F681EA
:10113000E02DE680F780D70112968D919C910817DB
:10114000190758F36701B2E0CB0ED11CC6010E940B
:101150009102F70184899589892B21F0C7010C96AA
:101160000E949102D70156968C919091AB029817EC
:1011700010F48093AB028D9FC0011124B6018F51F2
:101180009D4F0E943B02E0910503F0910603D701B9
:1011900056969C918689981708F4B6CFC1E0B4CFD3
:1011A0008091A8029091A90201969093A902809340
:1011B000A802C0E09ECFEF92FF920F931F93CF93B0
:1011C000DF930FB6F8940F928091A0028150809324
:1011D000A0028091A002882351F080E00F900FBE02
:1011E000DF91CF911F910F91FF90EF900895809123
:1011F000AE02882391F3D0E0C0E089E0F82EEE241F
:10120000E39429C0E091C702F091C802C681D7815A
:10121000CE010C960E9491028E010E5F1F4FC801F5
:101220000E9491028E899091AB02981710F48093DE
:10123000AB028F9DC0011124B8018F519D4F0E94B8
:101240003B02E0910503F09106039E898689981779
:1012500010F0E092A7028091C2028111D3CFCD2B72
:1012600011F00E944106C091A802D091A9022097D6
:1012700061F011E00E942E0881111093A7022197BE
:10128000C9F71092A9021092A8028091A7028823A0
:1012900009F4A3CF0E94FE0281E0A0CFCF93DF9399
:1012A000EC01892B29F40E94FE02DF91CF91089571
:1012B0000E941E0860E0CE010E945C060E94DB08CE
:1012C000882389F3F2CF8091A002882321F081E066
:1012D0008093A70208951092A702A0910503B091F0
:1012E0000603E0910503F09106032D913C91878957
:1012F000908D8217930760F060910503709106034B
:101300008091050390910603675E7F4F0E94DB0C7E
:101310002091AB0289E0422F50E0849FF001859F2D
:10132000F00D1124EF51FD4F9081992349F1A181D6
:10133000B28112960D90BC91A02DB283A183289FFB
:10134000C00111248C519D4FA817B90729F412969A
:101350008D919C919283818389E0849FF001859F88
:10136000F00D1124EF51FD4F0180F281E02D8681B7
:10137000978190930603809305032093AB02089511
:101380002150C9CFCF93DF93EB016091050370919A
:101390000603645F7F4F0E945B0261E0CE01DF9134
:1013A000CF910C945C061F93CF93DF93EB01142F26
:1013B0006091050370910603645F7F4F0E943B02BA
:1013C000112311F0CFEFDFEF612FCE01DF91CF912D
:1013D0001F910C945C060F931F93CF93DF93DC0156
:1013E0001596ED91FC91C681D7818E01045F1F4F48
:1013F000C8010E9491028091A002811125C00A506B
:101400001109C8010E9491028E899091AB02981730
:1014100010F48093AB02B9E08B9FC0011124B80196
:101420008F519D4F0E943B02E0910503F09106030E
:101430009E898689891760F481E08093A702DF91F5
:10144000CF911F910F910895B80182EC92E0EACFFD
:1014500080E0F5CF2091A602FC0120832091AC0210
:101460003091AD02328321830895CF93DF930FB67D
:10147000F8940F924091AC025091AD02DB012D9196
:101480003C912F3F3207B9F0EC01E981FA81A0913C
:10149000A602B881BA1719F04E175F07A8F44E1BC1
:1014A0005F0B4217530768F4241B350BFB01318394
:1014B00020830E942A0A80E00F900FBEDF91CF9117
:1014C0000895DB011D921C9281E0F6CF81E08093AC
:1014D000A70208958091AA02882331F08091A0028A
:1014E000882321F080E0089581E0089582E0089546
:1014F0000F931F93CF93DF93EC01892B31F480E09E
:10150000DF91CF911F910F9108958AA181508AA3F5
:101510002E8999A1291799F38111F1CF8E010E5FC0
:101520001F4FC8010E94910289A18E8B24E030E0F8
:10153000281B31093D872C879091AB02981710F436
:101540008093AB0229E0829FC0011124B8018F5122
:101550009D4F0E943B0281E0D3CF0FB6F8940F92CB
:1015600080910B0390910C03892BE9F48AE193E0BD
:101570000E94290281E193E00E9429028AE193E01E
:101580009093100380930F0381E193E090930E03F7
:1015900080930D0340E065E08AE00E94AC049093E4
:1015A0000C0380930B030F900FBE0895FC0173830F
:1015B0006283918780874617570790F0421B530B31
:1015C0008485958548175907C8F4BF016E5F7F4F22
:1015D00080910D0390910E030E945B0280E00895BC
:1015E0004217530718F46217730740F4BF016E5F88
:1015F0007F4F80910F0390911003EECF81E008950B
:10160000EF92FF920F930E94AD0A80910B0390918D
:101610000C03892B99F089E0E82E83E0F82E03E093
:1016200030E020E045E550E063E872E08FEA9BE0BF
:101630000E94E5060F91FF90EF90089580E0FACFA9
:101640000F931F93CF93DF9300D000D01F92CDB79D
:10165000DEB7A0910B03B0910C03109769F1F9016B
:1016600069835B834A839D838C836630E4F40E94A4
:101670006A0AE0910B03F0910C0320E0A80182308C
:1016800011F050E040E0BE016F5F7F4FCF010E943C
:10169000CF040F900F900F900F900F90DF91CF918C
:1016A0001F910F91089520E0AF01BE016F5F7F4F42
:1016B000CD010E946405EDCF80E0EBCFEF92FF9269
:1016C0000F931F93CF93DF93E0910F03F0911003DB
:1016D0008081811113C080910D0390910E0390932E
:1016E000100380930F03F0930E03E0930D03DF913B
:1016F000CF911F910F91FF90EF9008950580F68193
:10170000E02DE080F180C681D7818E010E5F1F4FF2
:10171000C8010E949102E889F989CE0109958A8958
:1017200082FFD2CF8C859D858E0D9F1DE816F90610
:1017300060F49B838A83D987C887B80180910F039F
:10174000909110030E945B02BFCF10E000E030E0F8
:1017500020E0A70160E0CE010E94200BB5CFCF931F
:10176000DF9300D000D01F92CDB7DEB7E0910F031A
:10177000F0911003D080F12CE12CDD2029F00580C0
:10178000F681E02DE080F1800E941E080E9424086E
:101790008C0180910703909108030817190708F03E
:1017A0004AC00E945E0B10930803009307030E9437
:1017B000DB0850E040E0BE016F5F7F4F80910B037C
:1017C00090910C030E949405882381F2898187FD02
:1017D000F0CFEC80FD80F70182859385892B21F085
:1017E000C70102960E9491020E9424086C01809118
:1017F000070390910803C816D90610F40E945E0BE7
:10180000D0920803C0920703E981EA3090F60E2EC9
:10181000000CFF0BEF5EF34FD70152968C910C94A6
:101820009911710C710C710CAF0C9A0CA90C710C04
:10183000710CAF0C9A0C1093080300930703DD2082
:10184000C1F10E151F05E0F10E94DB08E0910F03C6
:10185000F09110030580F681E02DC680D780C60187
:1018600002960E949102D60152968C91529782FF65
:101870001CC01C966D917C916E0D7F1D9701A80177
:10188000C6010E94D60A882349F010E000E030E04B
:1018900020E0A70160E0C6010E94200BD60150960F
:1018A000ED91FC91C601099584CF8E7FF601828B64
:1018B000F5CFE0910D03F0910E03808141E081119D
:1018C00040E0B701601B710B80910B0390910C03FA
:1018D0000E9425060E94DB0881116BCF0E94FE0248
:1018E00068CF8160F701828B2A813B816485758591
:1018F000620F731FA601C7010E94D60A882309F44C
:1019000058CFD7015096ED91FC91C7010995F70189
:10191000828982FF4ECF4A815B8184859585480FFD
:10192000591F10E000E030E020E060E0C7010E94B5
:10193000200B3FCF8160F701828B6A817B817587A5
:1019400064876C0D7D1D9601A601C7010E94D60A11
:1019500030CF81FD04C0C7010E9418022ACF8E7FBC
:10196000D70152968C9325CF209104013091050127
:101970008FEF98E0821B930B9093010180930001FD
:101980000E9487000E94F00708950E949D0088EC45
:101990009EE0892B11F00C94C80E0895259A2D9A7B
:1019A0002FE788E391E0215080409040E1F700C0AC
:1019B00000001D9AF5CF259A2D9A2FEF83ED90E325
:1019C000215080409040E1F700C000001D9AF5CF03
:1019D0001F920F920FB60F9211242F933F934F93A4
:1019E0005F936F937F938F939F93AF93BF93EF9387
:1019F000FF93E0916503F0916603309749F0A68567
:101A0000B7858585968D91FF14C09C918923A1F49B
:101A1000FF91EF91BF91AF919F918F917F916F91C6
:101A20005F914F913F912F910F900FBE0F901F909C
:101A300018959C91892361F7A389B4899C91858924
:101A4000809589238C93868997890197F1F7608D1A
:101A5000718DA685B785558538E020E0CB010197CB
:101A6000F1F7822F90E095958795282F4C9145238B
:101A700009F02068315091F7868D81FD2095809185
:101A8000240390E001968F73992730912303381730
:101A900099F0A0912403B0E0AB5DBC4F2C938093F0
:101AA0002403828D938D0197F1F7A389B4898C91DA
:101AB0009589892B8C93ACCF868D8160868FF1CFF1
:101AC00008951F920F920FB60F9211242F933F93F8
:101AD0004F935F936F937F938F939F93AF93BF9336
:101AE000EF93FF93E0910601F09107010995FF91B3
:101AF000EF91BF91AF919F918F917F916F915F9186
:101B00004F913F912F910F900FBE0F901F901895FE
:101B10001F920F920FB60F9211242F933F934F9362
:101B20005F936F937F938F939F93AF93BF93EF9345
:101B3000FF93E0910801F09109010995FF91EF9160
:101B4000BF91AF919F918F917F916F915F914F91D5
:101B50003F912F910F900FBE0F901F9018951F92DD
:101B60000F920FB60F9211242F933F938F939F9351
:101B7000AF93BF938091680390916903A0916A032A
:101B8000B0916B033091670326E0230F2D3758F592
:101B90000296A11DB11D2093670380936803909363
:101BA0006903A0936A03B0936B0380916C039091D7
:101BB0006D03A0916E03B0916F030196A11DB11D3D
:101BC00080936C0390936D03A0936E03B0936F03A7
:101BD000BF91AF919F918F913F912F910F900FBE29
:101BE0000F901F90189529E8230F0396A11DB11D92
:101BF000D2CF789484B5826084BD84B5816084BD81
:101C000085B5826085BD85B5816085BDEEE6F0E075
:101C1000808181608083E1E8F0E0108280818260D1
:101C20008083808181608083E0E8F0E08081816052
:101C30008083E1EBF0E0808184608083E0EBF0E082
:101C4000808181608083EAE7F0E080818460808326
:101C500080818260808380818E7F808380818068A4
:101C600080831092C1000895843081F028F482307E
:101C700099F08330A9F008958830A9F08930C9F02F
:101C80008530B1F4809180008F7D03C08091800009
:101C90008F7780938000089584B58F7784BD0895F1
:101CA00084B58F7DFBCF8091B0008F778093B0009B
:101CB00008958091B0008F7DF9CF1F93CF93DF936C
:101CC000282F30E0F901E859FF4F8491F901E158DC
:101CD000FF4FD491F901EA56FF4FC491CC23A9F0EC
:101CE000162F81110E94340EEC2FF0E0EE0FFF1F33
:101CF000E355FF4FA591B4918FB7F894EC91111172
:101D000008C0D095DE23DC938FBFDF91CF911F9168
:101D10000895DE2BF8CFFC01918D228D892F90E064
:101D2000805C9F4F821B91098F7399270895FC0156
:101D3000918D828D981731F0828DE80FF11D858D80
:101D400090E008958FEF9FEF0895FC01918D828DB3
:101D5000981761F0A28DAE0FBF2FB11D5D968C91CB
:101D6000928D9F5F9F73928F90E008958FEF9FEF0A
:101D70000895FC01538D448D252F30E0842F90E091
:101D8000821B930B541710F0CF9608950197089576
:101D900082E190E1892B49F080E090E0892B29F0E5
:101DA0000E94121081110C9400000895FC01A48D72
:101DB000A80FB92FB11DA35ABF4F2C91848D90E06D
:101DC00001968F739927848FA689B7892C93A08950
:101DD000B1898C9180648C93938D848D981306C007
:101DE0000288F389E02D80818F7D80830895CF93D1
:101DF000DF93EC01888D8823B9F0AA89BB89E88933
:101E0000F9898C9185FD03C0808186FD0DC00FB6D8
:101E100007FCF7CF8C9185FFF2CF808185FFEDCF56
:101E2000CE010E94D60EE9CFDF91CF910895EF92B7
:101E3000FF920F931F93CF93DF93EC0181E0888F84
:101E40009B8D8C8D981316C0E889F989808185FF58
:101E500011C0EE89FF896083E889F98980818064F7
:101E6000808381E090E0DF91CF911F910F91FF90EF
:101E7000EF900895F62E0B8D10E00F5F1F4F0F733C
:101E80001127E02E8C8D8E110CC00FB607FCFACFF7
:101E9000E889F989808185FFF5CFCE010E94D60EB1
:101EA000F1CFEB8DEC0FFD2FF11DE35AFF4FF082C8
:101EB0000B8FEA89FB8980818062D2CFCF92DF923B
:101EC000EF92FF921F93CF93DF93EC016A017B01A6
:101ED000122F60E874E88EE190E0A70196010E945D
:101EE0007711215031094109510956954795379588
:101EF0002795E889F98982E08083211580E13807F8
:101F000098F0E889F989108260E472E48FE090E04B
:101F1000A70196010E947711215031094109510909
:101F20005695479537952795EC85FD853083EE8549
:101F3000FF852083188EEC89FD891083EA89FB894F
:101F4000808180618083EA89FB89808188608083C9
:101F5000EA89FB89808180688083EA89FB898081A6
:101F60008F7D8083DF91CF911F91FF90EF90DF9065
:101F7000CF9008951F920F920FB60F9211242F93B6
:101F80008F939F93EF93FF93E0918003F0918103F0
:101F90008081E0918603F091870382FD1BC09081D0
:101FA000809189038F5F8F7320918A03821741F09C
:101FB000E0918903F0E0E059FC4F958F809389030D
:101FC000FF91EF919F918F912F910F900FBE0F90E6
:101FD0001F9018958081F4CF1F920F920FB60F9229
:101FE00011242F933F934F935F936F937F938F931E
:101FF0009F93AF93BF93EF93FF9380E793E00E948B
:10200000D60EFF91EF91BF91AF919F918F917F91EC
:102010006F915F914F913F912F910F900FBE0F9055
:102020001F90189580E793E00E948B0E21E0892B8A
:1020300009F420E0822F0895E0E7F3E01382128292
:1020400088EE93E0A0E0B0E084839583A683B78315
:102050008FE892E09183808385EC90E09587848778
:1020600084EC90E09787868780EC90E0918B808B62
:1020700081EC90E0938B828B82EC90E0958B848B4B
:1020800086EC90E0978B868B118E128E138E148EB9
:102090000895AF92BF92CF92DF92EF92FF920F938B
:1020A0001F93CF93DF936C017B018B01040F151FEE
:1020B000EB015E01AE18BF08C017D10759F0699156
:1020C000D601ED91FC910190F081E02DC6010995BA
:1020D000892B79F7C501DF91CF911F910F91FF9067
:1020E000EF90DF90CF90BF90AF900895FB01A48553
:1020F000B585ED91FC9111970190F081E02D682F4D
:10210000CD01099590E080E00895FB010190002049
:10211000E9F73197AF01461B570BDC01ED91FC91BC
:102120000280F381E02D09946CE971E00C94851034
:102130000F931F93CF93DF938C01D0E0C0E0611524
:10214000710519F00E948510EC01C8010E949410DD
:102150008C0F9D1FDF91CF911F910F910895CF9309
:10216000DF93CDB7DEB72E970FB6F894DEBF0FBE64
:10217000CDBF86E790E19A8789871C861B8682E01F
:102180008C838B899C899E878D87AE01495E5F4FCA
:102190006D897E89CE0101960E94D4122E960FB6CB
:1021A000F894DEBF0FBECDBFDF91CF91089581308F
:1021B00039F018F0823051F0089510926E000895B1
:1021C00080916F008D7F80936F00089580917000E3
:1021D0008D7F8093700081E08093B0008091B1008A
:1021E000887F84608093B1001092B3000895CF93EC
:1021F000C82F80910A01C8130DC0E7EBF0E084916D
:102200009FEF90930A010E94D71060E08C2FCF912E
:102210000C945D0E8FEFF7CF1F920F920FB60F92B7
:1022200011242F933F934F935F936F937F938F93DB
:102230009F93AF93BF93EF93FF938091100490917E
:102240001104A0911204B0911304892B8A2B8B2BBB
:10225000D1F190910D04E0910E04F0910F04808172
:10226000892780838091100490911104A091120419
:10227000B0911304181619061A061B069CF48091D7
:10228000100490911104A0911204B09113040197CD
:10229000A109B1098093100490931104A093120432
:1022A000B0931304FF91EF91BF91AF919F918F91E4
:1022B0007F916F915F914F913F912F910F900FBE42
:1022C0000F901F90189580910A010E94F710EACF95
:1022D0000E94F90D0E94B40C0E948700C8ECDEE059
:1022E0000E949D002097E1F30E94C80EF9CFA1E261
:1022F0001A2EAA1BBB1BFD010DC0AA1FBB1FEE1F80
:10230000FF1FA217B307E407F50720F0A21BB30BCA
:10231000E40BF50B661F771F881F991F1A9469F746
:1023200060957095809590959B01AC01BD01CF01A2
:102330000895EE0FFF1F0590F491E02D09940F937F
:102340001F93CF93DF938230910510F482E090E0E9
:10235000E0911604F091170430E020E0B0E0A0E036
:10236000309799F42115310509F44AC0281B390B1F
:1023700024303105D8F58A819B816115710589F179
:10238000FB0193838283FE0111C040815181028150
:10239000138148175907E0F04817590799F4109727
:1023A00061F012960C93129713961C933296CF01FC
:1023B000DF91CF911F910F91089500931604109310
:1023C0001704F4CF2115310551F04217530738F0A7
:1023D000A901DB019A01BD01DF01F801C1CFEF01C5
:1023E000F9CF9093170480931604CDCFFE01E20F2E
:1023F000F31F819391932250310939832883D7CFDA
:102400002091140430911504232B41F420910201F2
:10241000309103013093150420931404209100019E
:10242000309101012115310541F42DB73EB740919E
:10243000040150910501241B350BE0911404F09127
:102440001504E217F307A0F42E1B3F0B28173907DA
:1024500078F0AC014E5F5F4F2417350748F04E0F00
:102460005F1F5093150440931404819391939FCF61
:10247000F0E0E0E09CCFCF93DF930097E9F0FC0120
:10248000329713821282A0911604B0911704ED01C5
:1024900030E020E01097A1F420813181820F931F5A
:1024A00020911404309115042817390709F061C0F0
:1024B000F0931504E0931404DF91CF910895EA019D
:1024C000CE17DF07E8F54A815B819E014115510572
:1024D000B1F7E901FB83EA8349915991C40FD51FF4
:1024E000EC17FD0761F4808191810296840F951F9E
:1024F000E90199838883828193819B838A83F0E0B9
:10250000E0E012968D919C9113970097B9F52D916B
:102510003C911197CD010296820F931F20911404D4
:10252000309115042817390739F6309751F5109274
:10253000170410921604B0931504A0931404BCCF92
:10254000D383C28340815181840F951FC817D90757
:1025500061F44E5F5F4F88819981480F591F518305
:1025600040838A819B81938382832115310509F001
:10257000B0CFF0931704E09316049ECFFD01DC0169
:10258000C0CF13821282D7CFFB01DC0102C00190C1
:102590000D9241505040D8F70895DC0101C06D9371
:1025A00041505040E0F70895ABE0B0E0EAEDF2E1D1
:1025B0000C9452157C013B018A01FC0117821682A2
:1025C000838181FFC8C1CE0101965C01F70193812F
:1025D000F30193FD859193FF81913F01882309F4D5
:1025E00053C1853239F493FD859193FF81913F0169
:1025F000853229F4B70190E00E94C414E7CF912CF2
:10260000212C312CFFE1F31538F08B3211F190F4CD
:10261000803209F1833229F137FC3CC020ED280FCC
:102620002A3050F536FE20C08AE0989E200D1124F5
:10263000922E06C08D3291F0803371F7689430F895
:10264000F30193FD859193FF81913F018111DACFD1
:1026500021C0689431F8689432F8F2CF689433F866
:10266000EFCF689434F8ECCFEAE02E9E200D1124D1
:10267000222E689435F8E4CF8E3229F436FC04C15A
:10268000689436F8DDCF8C3619F4689437F8D8CFD3
:102690008836B1F2982F9F7D95549330E0F08336C1
:1026A000A1F18337C1F1833509F063C02801F2E05D
:1026B0004F0E511CF801C080D180692D70E036FCAE
:1026C00002C06FEF7FEFC6010E94AE144C01689408
:1026D00037F882010AC00C5F1F4FFFE3F98388249B
:1026E0008394912C6501E89437F833FE2DC0522C69
:1026F0008114910471F5552009F468CFB70180E287
:1027000090E00E94C4145A94F6CFF8018081898326
:102710000E5F1F4FE4CF2801F2E04F0E511CF8016D
:10272000C080D180692D70E036FC02C06FEF7FEF72
:10273000C6010E94B9144C018201D5CFB70180E2D5
:1027400090E00E94C4142A942814190409F0B0F7E8
:10275000CECFF60137FC859137FE81916F01B7012D
:1027600090E00E94C41451105A94F1E08F1A91081D
:10277000BFCF843619F0893609F077C0F80137FEEB
:102780006BC060817181828193810C5F1F4FF32D3B
:10279000FF763F2E97FF09C09095809570956195C3
:1027A0007F4F8F4F9F4F689437F82AE030E0A501A4
:1027B0000E94F414C82ECA188C2C432C36FE0CC070
:1027C000E89440F8C91440F434FE05C032FC03C05C
:1027D000F32DFE7E4F2E892C44FE95C0FE01EC0D9C
:1027E000F11D8081803309F087C0242D297E422E7F
:1027F000842D8870582E43FC95C040FE8FC09C2CC1
:10280000821418F42C0C922C981844FE91C0B70135
:1028100080E390E00E94C41442FE09C088E790E083
:1028200041FE02C088E590E0B7010E94C414C914BB
:1028300008F48AC0CA94D12C9FEFC91AD90ACA0CCD
:10284000DB1CF60182916F01B70190E00E94C41475
:10285000AC14BD04B1F74FCF60817181072E000C1D
:10286000880B990B0E5F1F4F92CFD32CE894D4F8AE
:102870002AE030E0853739F1232D297FD22E8F369B
:1028800001F148F48835A9F0F701868197812B96EC
:10289000E2E10C946E15803749F08837A9F7D4FE31
:1028A00002C06894D2F820E130E00DC06894D4F8FA
:1028B000F6CF34FE03C0822F8660D82E20E132E0AE
:1028C00002C028E030E0F801D7FE0FC060817181BE
:1028D000828193810C5F1F4FA5010E94F414C82EC2
:1028E000CA183D2CE89437F867CF6081718190E079
:1028F00080E00E5F1F4FF0CF42FC02C0839478CF80
:102900008394839475CF842D867809F471CFF6CFA4
:10291000B70180E290E00E94C41483948214C0F353
:10292000512C73CF522C5818821408F46ECFF8CF64
:10293000842D867809F47BCF8BE241FE80E247FC50
:102940008DE2B70190E071CFB70180E390E00E9483
:10295000C4149A946CCF8FEF9FEF99CFFC01059030
:10296000615070400110D8F7809590958E0F9F1F91
:102970000895FC016150704001900110D8F78095D6
:1029800090958E0F9F1F08950F931F93CF93DF9302
:10299000182F092FEB018B8181FD09C01FEF0FEF6D
:1029A000812F902FDF91CF911F910F91089582FF7A
:1029B00014C02E813F818C819D81281739073CF4FA
:1029C000E881F981CF0101969983888310838E81F4
:1029D0009F8101969F838E83E3CFE885F985812FC0
:1029E0000995892BA1F3DACFFA01AA27283051F1F2
:1029F000203181F1E8946F936E7F6E5F7F4F8F4F30
:102A00009F4FAF4FB1E03ED0B4E03CD0670F781F8E
:102A1000891F9A1FA11D680F791F8A1F911DA11D73
:102A20006A0F711D811D911DA11D20D009F46894AC
:102A30003F912AE0269F11243019305D3193DEF654
:102A4000CF010895462F4770405D4193B3E00FD00A
:102A5000C9F7F6CF462F4F70405D4A3318F0495DF5
:102A600031FD4052419302D0A9F7EACFB4E0A695D8
:102A70009795879577956795BA95C9F700976105FA
:102A8000710508959B01AC010A2E06945795479550
:102A900037952795BA95C9F7620F731F841F951F45
:102AA000A01D08952F923F924F925F926F927F9256
:102AB0008F929F92AF92BF92CF92DF92EF92FF924E
:102AC0000F931F93CF93DF93CDB7DEB7CA1BDB0BFA
:102AD0000FB6F894DEBF0FBECDBF09942A8839889F
:102AE00048885F846E847D848C849B84AA84B984A6
:102AF000C884DF80EE80FD800C811B81AA81B981B2
:102B0000CE0FD11D0FB6F894DEBF0FBECDBFED01C5
:062B10000895F894FFCFC8
:102B1600000018048000600D0000FF5365726961B3
:102B26006C0042616420737461727420666C616724
:102B36000042616420656E6420666C6167005345DF
:102B46005249414C205441534B2053544152544511
:102B560044005265636569766564207374617475B3
:102B660073207061636B65742100094C6F5261209C
:102B76007365743A2025750D0A0009554E4958208B
:102B86007365743A2025750D0A0009557074696DD0
:102B9600653A20257520730D0A000954656D706528
:102BA6007261747572653A20257520430D0A000915
:102BB600544F413A20257520730D0A00526563650E
:102BC6006976656420636F6D6D616E642070616304
:102BD6006B6574210009436F6D6D616E6420494415
:102BE6003A202532580D0A00526563656976656498
:102BF6002041434B207061636B6574210009526567
:102C060073756C742049443A202532580D0A0052D7
:102C160065636569766564206D65737361676520B4
:102C26007061636B6574210009525353493A20253C
:102C360075204442690D0A0009534E523A20257503
:102C46000D0A00526563656976656420756E6B6E64
:102C56006F776E207061636B65742074797065217F
:102C6600005061636B65742049443A2025750D0A4E
:102C7600004C656E6774683A2025750D0A00554E3E
:102C860049582074696D653A2025750D0A00494436
:102C96004C4500546D722053766300000000001707
:0E2CA6000F4910B90EF70E8B0EA50E970E00FB
:107E000001C0B7C0112484B790E89093610010922C
:107E10006100882361F0982F9A70923041F081FFC1
:107E200002C097EF94BF282E80E0C6D0E9C085E05D
:107E30008093810082E08093C00088E18093C1003C
:107E400089E18093C40086E08093C2008EE0B4D0C4
:107E5000259A84E028E13EEF91E03093850020935D
:107E6000840096BBB09BFECF1D9AA8954091C000A0
:107E700047FD02C0815089F793D0813479F490D0C6
:107E8000182FA0D0123811F480E004C088E0113817
:107E900009F083E07ED080E17CD0EECF823419F40B
:107EA00084E198D0F8CF853411F485E0FACF853598
:107EB00041F476D0C82F74D0D82FCC0FDD1F82D0DC
:107EC000EACF863519F484E085D0DECF843691F58B
:107ED00067D066D0F82E64D0D82E00E011E05801AB
:107EE0008FEFA81AB80A5CD0F80180838501FA10D8
:107EF000F6CF68D0F5E4DF1201C0FFCF50E040E0DC
:107F000063E0CE0136D08E01E0E0F1E06F0182E067
:107F1000C80ED11C4081518161E0C8012AD00E5F9A
:107F20001F4FF601FC10F2CF50E040E065E0CE01BB
:107F300020D0B1CF843771F433D032D0F82E30D086
:107F400041D08E01F80185918F0123D0FA94F11070
:107F5000F9CFA1CF853739F435D08EE11AD085E934
:107F600018D08FE097CF813509F0A9CF88E024D0D1
:107F7000A6CFFC010A0167BFE895112407B600FCF3
:107F8000FDCF667029F0452B19F481E187BFE89594
:107F900008959091C00095FFFCCF8093C60008958E
:107FA0008091C00087FFFCCF8091C00084FD01C09C
:107FB000A8958091C6000895E0E6F0E098E19083EE
:107FC00080830895EDDF803219F088E0F5DFFFCF80
:107FD00084E1DFCFCF93C82FE3DFC150E9F7CF9122
:027FE000F1CFDF
:027FFE00000879
:0400000300007E007B
:00000001FF
